:020000040000FA
:100000000C9462000C948A000C948A000C948A0070
:100010000C948A000C948A000C948A000C948A0038
:100020000C948A000C948A000C948A000C948A0028
:100030000C948A000C948A000C948A000C948A0018
:100040000C947A020C948A000C9448020C942202BC
:100050000C948A000C948A000C948A000C948A00F8
:100060000C948A000C948A000000000025002800EF
:100070002B0000000000240027002A0000000000E0
:1000800023002600290004040404040404040202DA
:100090000202020203030303030301020408102007
:1000A0004080010204081020010204081020000012
:1000B0000008000201000003040700000000000027
:1000C00000006A0411241FBECFEFD8E0DEBFCDBF11
:1000D00011E0A0E0B1E0E2E8F9E002C005900D9285
:1000E000AA32B107D9F721E0AAE2B1E001C01D921E
:1000F000A63DB207E1F710E0C2E6D0E004C02197C8
:10010000FE010E94B904C136D107C9F70E94C4029A
:100110000C94BF040C940000AF92BF92CF92DF9278
:10012000EF92FF920F931F93CF93DF936C017B01AC
:100130008B01040F151FEB015E01AE18BF08C0173D
:10014000D10759F06991D601ED91FC910190F081B0
:10015000E02DC6010995892B79F7C501DF91CF9173
:100160001F910F91FF90EF90DF90CF90BF90AF90D5
:100170000895FC01538D448D252F30E0842F90E0AD
:10018000821B930B541710F0CF9608950197089592
:10019000FC01918D828D981761F0A28DAE0FBF2F5B
:1001A000B11D5D968C91928D9F5F9F73928F90E0B1
:1001B00008958FEF9FEF0895FC01918D828D981720
:1001C00031F0828DE80FF11D858D90E008958FEF5D
:1001D0009FEF0895FC01918D228D892F90E0805C26
:1001E0009F4F821B91098F739927089589E391E0AE
:1001F0000E94EA0021E0892B09F420E0822F089573
:1002000080E090E0892B29F00E94F60081110C9487
:1002100000000895FC01A48DA80FB92FB11DA35AA9
:10022000BF4F2C91848D90E001968F739927848F16
:10023000A689B7892C93A089B1898C918370806439
:100240008C93938D848D981306C00288F389E02DDA
:1002500080818F7D80830895EF92FF920F931F938B
:10026000CF93DF93EC0181E0888F9B8D8C8D981369
:100270001AC0E889F989808185FF15C09FB7F89475
:10028000EE89FF896083E889F989808183708064C1
:1002900080839FBF81E090E0DF91CF911F910F910C
:1002A000FF90EF900895F62E0B8D10E00F5F1F4F1B
:1002B0000F731127E02E8C8D8E110CC00FB607FC2A
:1002C000FACFE889F989808185FFF5CFCE010E94B8
:1002D0000A01F1CFEB8DEC0FFD2FF11DE35AFF4F1B
:1002E000F0829FB7F8940B8FEA89FB898081806246
:1002F000CFCFCF93DF93EC01888D8823B9F0AA8903
:10030000BB89E889F9898C9185FD03C0808186FDD0
:100310000DC00FB607FCF7CF8C9185FFF2CF80811F
:1003200085FFEDCFCE010E940A01E9CFDF91CF9189
:100330000895833081F028F4813099F08230A9F05B
:1003400008958730A9F08830C9F08430B1F48091E5
:1003500080008F7D03C0809180008F778093800024
:10036000089584B58F7784BD089584B58F7DFBCFC4
:100370008091B0008F778093B00008958091B00095
:100380008F7DF9CF1F93CF93DF93282F30E0F901B2
:10039000E255FF4F8491F901E656FF4FD491F901E0
:1003A000EA57FF4FC491CC23A9F0162F81110E9468
:1003B0009901EC2FF0E0EE0FFF1FE859FF4FA591D8
:1003C000B4918FB7F894EC91111108C0D095DE2349
:1003D000DC938FBFDF91CF911F910895DE2BF8CF73
:1003E0003FB7F89480912B0190912C01A0912D01A1
:1003F000B0912E0126B5A89B05C02F3F19F001969C
:10040000A11DB11D3FBFBA2FA92F982F8827BC016E
:10041000CD01620F711D811D911D42E0660F771F96
:10042000881F991F4A95D1F70895FC01019000207B
:10043000E9F73197AF01481B590BBC0189E391E003
:100440000C948C001F920F920FB60F9211242F93D1
:100450003F934F935F936F937F938F939F93AF934C
:10046000BF93EF93FF9389E391E00E940A01FF910C
:10047000EF91BF91AF919F918F917F916F915F911C
:100480004F913F912F910F900FBE0F901F90189595
:100490001F920F920FB60F9211242F938F939F9359
:1004A000EF93FF93E0914901F0914A018081E0913F
:1004B0004F01F091500182FD1BC09081809152014B
:1004C0008F5F8F7320915301821741F0E0915201A9
:1004D000F0E0E75CFE4F958F80935201FF91EF9122
:1004E0009F918F912F910F900FBE0F901F90189595
:1004F0008081F4CF1F920F920FB60F9211242F9389
:100500003F938F939F93AF93BF9380912F019091CF
:100510003001A0913101B091320130912A0123E0E4
:10052000230F2D3758F50196A11DB11D20932A01E7
:1005300080932F0190933001A0933101B093320149
:1005400080912B0190912C01A0912D01B0912E0151
:100550000196A11DB11D80932B0190932C01A093B6
:100560002D01B0932E01BF91AF919F918F913F913B
:100570002F910F900FBE0F901F90189526E8230F14
:100580000296A11DB11DD2CFCF93DF93CDB7DEB7B9
:10059000A1970FB6F894DEBF0FBECDBF789484B597
:1005A000826084BD84B5816084BD85B5826085BD6F
:1005B00085B5816085BD80916E00816080936E00FD
:1005C00010928100809181008260809381008091EF
:1005D00081008160809381008091800081608093A0
:1005E00080008091B10084608093B1008091B00060
:1005F00081608093B00080917A00846080937A005B
:1006000080917A00826080937A0080917A00816084
:1006100080937A0080917A00806880937A001092AB
:10062000C100E2EAF0E024917EE8272E70E0372E48
:10063000F10184918823C9F090E0880F991FFC0193
:10064000EE58FF4FA591B491FC01E859FF4F459139
:1006500054913FB7F8949C91822F809598239C9356
:10066000FA019081892380833FBF02E010E0802F50
:10067000F801E656FF4F9491F801EA57FF4F249195
:10068000222399F030E0220F331FF901EE58FF4F7B
:10069000A591B491F901E859FF4F259134912FB7F5
:1006A000F894EC919E2B9C932FBF60E00E94C201B6
:1006B0000F5F1F4F08301105D1F6E0914901F0910D
:1006C0004A0182E08083E0914501F0914601108269
:1006D000E0914701F09148018FEC80831092510125
:1006E000E0914D01F0914E0186E08083E0914B0155
:1006F000F0914C01808180618083E0914B01F09109
:100700004C01808188608083E0914B01F0914C0125
:10071000808180688083E0914B01F0914C01808161
:100720008F7D808382E191E00E9415028AE191E051
:100730000E9415024AE0442E512C612C712C00E0DD
:1007400010E0E6EBF0E08491E2EAF0E0F490F101F1
:10075000E490EE2009F4BBC081110E949901EE2DB6
:10076000F0E0EE0FFF1FE458FF4FA591B4918C917C
:10077000F82291E080E009F490E0909337018093B3
:1007800038012FB7F89480912F0190913001A091FA
:100790003101B09132012FBF4091330150913401AA
:1007A0006091350170913601841B950BA60BB70B38
:1007B000C397A105B10508F47EC0809137019091DF
:1007C0003801019709F077C022E0F22E61E08F2D09
:1007D0000E94C201F394F8E0FF12F8CF0E94F001EA
:1007E0004B015C0195E0C92ED12CE12CF12C0E942B
:1007F000F001681979098A099B09683E73408105EF
:100800009105A8F321E0C21AD108E108F10888EEA9
:10081000880E83E0981EA11CB11CC114D104E10410
:10082000F10429F782E0F82E60E08F2D0E94C201CA
:10083000F394F8E0FF12F8CF2FB7F89480912F01CE
:1008400090913001A0913101B09132012FBF80937E
:10085000330190933401A0933501B09336018FB7E3
:10086000F89420912F013091300140913101509145
:1008700032018FBF19A27E0181E2E80EF11CCA018C
:10088000B901A30192010E949704605DF701629390
:100890007F01211531054105510589F7309719F080
:1008A000CF010E9415028DE191E00E9415028AE1BC
:1008B00091E00E9415020115110509F442CF0E9432
:1008C000F600882309F43DCF0E9400003ACF90E063
:1008D00080E053CFE9E3F1E01382128288EE93E0E7
:1008E000A0E0B0E084839583A683B78384E091E0A1
:1008F0009183808385EC90E09587848784EC90E0F9
:100900009787868780EC90E0918B808B81EC90E0DC
:10091000938B828B82EC90E0958B848B86EC90E0BD
:10092000978B868B118E128E138E148E0895A1E2F2
:100930001A2EAA1BBB1BFD010DC0AA1FBB1FEE1F59
:10094000FF1FA217B307E407F50720F0A21BB30BA4
:10095000E40BF50B661F771F881F991F1A9469F720
:1009600060957095809590959B01AC01BD01CF017C
:100970000895EE0FFF1F0590F491E02D0994F8946F
:10098000FFCF000000002C018C00B9007901EA00C3
:10099000C800DC005365742075702E000D0A0053EA
:0C09A000656E74207472696767657200F0
:107E0000112484B714BE81FFF0D085E080938100F7
:107E100082E08093C00088E18093C10086E0809377
:107E2000C20080E18093C4008EE0C9D0259A86E02C
:107E300020E33CEF91E0309385002093840096BBD3
:107E4000B09BFECF1D9AA8958150A9F7CC24DD24C4
:107E500088248394B5E0AB2EA1E19A2EF3E0BF2EE7
:107E6000A2D0813461F49FD0082FAFD0023811F036
:107E7000013811F484E001C083E08DD089C08234E0
:107E800011F484E103C0853419F485E0A6D080C0E4
:107E9000853579F488D0E82EFF2485D0082F10E0AE
:107EA000102F00270E291F29000F111F8ED06801E7
:107EB0006FC0863521F484E090D080E0DECF843638
:107EC00009F040C070D06FD0082F6DD080E0C81688
:107ED00080E7D80618F4F601B7BEE895C0E0D1E017
:107EE00062D089930C17E1F7F0E0CF16F0E7DF06D8
:107EF00018F0F601B7BEE89568D007B600FCFDCFD4
:107F0000A601A0E0B1E02C9130E011968C91119780
:107F100090E0982F8827822B932B1296FA010C0160
:107F200087BEE89511244E5F5F4FF1E0A038BF0790
:107F300051F7F601A7BEE89507B600FCFDCF97BE46
:107F4000E89526C08437B1F42ED02DD0F82E2BD052
:107F50003CD0F601EF2C8F010F5F1F4F84911BD097
:107F6000EA94F801C1F70894C11CD11CFA94CF0C13
:107F7000D11C0EC0853739F428D08EE10CD085E9AC
:107F80000AD08FE07ACF813511F488E018D01DD067
:107F900080E101D065CF982F8091C00085FFFCCF94
:107FA0009093C60008958091C00087FFFCCF809118
:107FB000C00084FD01C0A8958091C6000895E0E648
:107FC000F0E098E1908380830895EDDF803219F02E
:107FD00088E0F5DFFFCF84E1DECF1F93182FE3DFCA
:107FE0001150E9F7F2DF1F91089580E0E8DFEE27F6
:047FF000FF270994CA
:027FFE00040479
:00000001FF
